:100000000C94C5020C940E030C940E030C940E0376
:100010000C940E030C940E030C940E030C940E031C
:100020000C940E030C940E030C94A8240C947F25BE
:100030000C940E030C940E030C940E030C940E03FC
:100040000C940E030C94851F0C940E030C940E0359
:100050000C940E030C94071F0C940E030C940E03C7
:100060000C940E030C940E030C940E030C940E03CC
:100070000C940E030C940E030C940E030C940E03BC
:100080000C940E030C940E030C940E030C940E03AC
:100090000C948C030C940E0300F001F009F002F0B4
:1000A00002F102F229001E001F00200021002200A0
:1000B000230024002500260027002D002E002A0002
:1000C0003E0046004B002B0014001A0008001500EB
:1000D00017001C0018000C00120013002F00300045
:1000E00028004C0049004E003900040016000700AB
:1000F00009000A000B000D000E000F003300340051
:1001000032002A00000000000000E10064001D0031
:100110001B00060019000500110010003600370012
:100120003800E5000000520000000000E000E3009D
:10013000E2000000000000002C00000000000000B1
:10014000E600E7000151E400500051004F000100BB
:100150003A003B003C003D003E003F0040004100B3
:10016000420043004400450001000100010001007D
:1001700001003470357036703770387039703A70ED
:100180003B700100010001000100010001000100BD
:100190000100010001000100010001000100010057
:1001A0000100010001000100010001000100000048
:1001B0000000000001000100010001000100010039
:1001C0000100010001000100010001000100000028
:1001D000010000000000010001000100000000001B
:1001E000000001000000000000000100010001000B
:1001F0000100010001000100643214643214783CF3
:100200001E1E140A05000000000101010202030481
:1002100005050607090A0B0C0E0F11121415171904
:100220001B1D1F212325282A2C2F313436393B3E14
:10023000414346494C4F5255585A5D6164676A6D57
:10024000707376797C7F8386898C8F9295989B9E3C
:10025000A2A5A7AAADB0B3B6B9BCBEC1C4C6C9CB2E
:10026000CED0D3D5D7DADCDEE0E2E4E6E8EAEBEDA7
:10027000EEF0F1F3F4F5F6F8F9FAFAFBFCFDFDFE09
:10028000FEFEFFFFFFFFFFFFFFFEFEFEFDFDFCFB8E
:10029000FAFAF9F8F6F5F4F3F1F0EEEDEBEAE8E648
:1002A000E4E2E0DEDCDAD7D5D3D0CECBC9C6C4C118
:1002B000BEBCB9B6B3B0ADAAA7A5A29E9B989592B5
:1002C0008F8C898683807C797673706D6A676461B0
:1002D0005D5A5855524F4C494643413E3B3936349E
:1002E000312F2C2A282523211F1D1B191715141205
:1002F000110F0E0C0B0A0907060505040302020183
:1003000001010000000000000000010101010101E5
:1003100001010102020202020202020203030303BC
:10032000030303030404040404040505050505068A
:100330000606060607070707080808080909090A44
:100340000A0A0A0B0B0B0C0C0C0D0D0D0E0E0F0FE9
:100350000F10101111111212131314141515161673
:100360001717181819191A1A1B1C1C1D1D1E1F1FE0
:1003700020202122222324252526272728292A2B2D
:100380002B2C2D2E2F2F3031323334353636373853
:10039000393A3B3C3D3E3F40414243444647484951
:1003A0004A4B4C4D4F50515253555657585A5B5C1F
:1003B0005E5F606263646667696A6C6D6E707173BC
:1003C000747678797B7C7E8081838486888A8B8D25
:1003D0008F91929496989A9B9D9FA1A3A5A7A9AB54
:1003E000ADAFB1B3B5B7B9BBBDBFC1C4C6C8CACC48
:1003F000CFD1D3D6D8DADCDFE1E4E6E8EBEDF0F2FA
:10040000F5F7FAFCFF00000000000000000000000B
:10041000010204060A0F17202C3A4A5D71879DB32A
:10042000C7DAE9F5FCFFFCF5E9DAC7B39D87715D32
:100430004A3A2C20170F0A060402010000000000AF
:100440000000000000160322004C0046004B005F35
:10045000005200650076004600220000001203638F
:1004600000610031003700380038003500380000E6
:10047000000403090409025400030100A0FA09045E
:1004800000000103010100092111010001224000C7
:100490000705810308000A090401000103000000A8
:1004A0000921110100012236000705820308000A14
:1004B00009040200010300000009211101000122CA
:1004C000390007058303200001120110010000001C
:1004D00008EDFE606001000102000105010906A1AE
:1004E00001050719E029E715002501950875018127
:1004F00002050819012905950575019102950175F7
:100500000391010507190029F71500250195F875D4
:10051000018102C005010980A101850216010026A2
:1005200003001A81002A8300751095018100C0051F
:100530000C0901A1018503160100269C021A010085
:100540002A9C02751095018100C005010906A101D0
:10055000050719E029E715002501950875018102B5
:100560009501750881010508190129059505750191
:1005700091029501750391010507190029FF1500E6
:1005800026FF00950675088100C011241FBECFEF1D
:10059000D0E2DEBFCDBF04B603FE27C08091990331
:1005A00090919A03A0919B03B0919C038730904B4C
:1005B000A740B04BD1F41092990310929A03109275
:1005C0009B0310929C0314BE84B7877F84BF0FB631
:1005D000F894A895809160008861809360001092E3
:1005E00060000FBEE0E0F0EF099511E0A0E0B1E09F
:1005F000EAEEF1E500E00BBF02C007900D92AE3FBE
:10060000B107D9F723E0AEEFB1E001C01D92A939DF
:10061000B207E1F70E94F7210C94F3280C94000034
:10062000EBE1F3E010828FEF818312821092B90028
:100630008CE08093B80085E08093BC0008958091A1
:100640001B03982F9D7F79F0813059F480911C0312
:10065000803311F0883329F480E98093BC000E9434
:10066000100380E0089581E00895FF920F931F9397
:10067000CF93DF93EC01162FF42E022F0E941F035D
:100680008823B9F180E98093BC000E941003F092A6
:100690001D03D0932103C0932003612F70E070935A
:1006A00027036093260310921F0310921E0380916C
:1006B0001B03823019F581E080931B0380911E0398
:1006C00090911F039C012F5F3F4F30931F03209396
:1006D0001E03C80FD91F88818093BB0085E88093D3
:1006E000BC00011114C0DF91CF911F910F91FF90B9
:1006F000089585E08A95F1F70000C0CF81E08093EE
:100700001B0385EAECCF85E08A95F1F700000E9493
:100710001F038823C1F3E7CF1F920F920FB60F92EA
:1007200011240BB60F922F933F934F938F939F9368
:10073000EF93FF938091B900887F8832C9F120F54B
:10074000803109F4B1C098F4882309F4B1C088302D
:1007500079F1FF91EF919F918F914F913F912F915F
:100760000F900BBE0F900FBE0F901F901895883101
:10077000E1F0803271F780911D03882309F48EC067
:100780008091B900887F7FC08034B9F128F480332C
:1007900091F3883381F3DDCF803509F444C0883587
:1007A00009F45BC08834A9F6E6CF83E080931B038D
:1007B00020911E0330911F038091260390912703FF
:1007C000281739070CF05AC0E0912003F09121035B
:1007D00080911E0390911F039C012F5F3F4F309328
:1007E0001F0320931E03E80FF91F80818093BB0035
:1007F00088EF80931C0385E813C084E080931B037B
:10080000809122039091230301972091240330913A
:1008100025032817390764F788EF80931C0385ECBC
:100820008093BC0096CF80912403909125039C0176
:100830002F5F3F4F30932503209324034091BB004B
:10084000895F9C4FFC014083809122039091230398
:1008500001972817390764F6DFCF80912403909120
:1008600025039C012F5F3F4F3093250320932403E2
:100870002091BB00895F9C4FFC01208380911D0368
:10088000882329F08FEF80931C0385EAC9CF10924B
:100890001B038FEF80931C0385E9C2CF10921B03CB
:1008A0008091B900887FF6CF82E080931B0351CFFF
:1008B00010921C0310921B03EFCFCF93DF9300D055
:1008C0001F92CDB7DEB76F3F69F0880F886E8983BE
:1008D0008DEF8A836B8321E040E063E0CE010196D7
:1008E0000E9435030F900F900F90DF91CF910895E4
:1008F000FF920F931F93CF93DF9300D01F92CDB73A
:10090000DEB7182FF42E022F0E945D04110F186E0F
:100910001983FA820B8321E040E063E0CE01019667
:100920000E9435030F900F900F90DF91CF911F9190
:100930000F91FF900895CF93DF93E82FF0E0F595A6
:10094000E795E370F0E0EE0FFF1FE250FE4FC0812D
:10095000D181209731F161504150E42FEE0F817029
:10096000E82BF0E0EC0FFD1F9389A1E0B0E0062E2C
:1009700001C0AA0F0A94EAF7211116C0A0959A2384
:10098000938B95A1A923A5A3813099F488E0429582
:10099000407F460F480FFE01E40FF11D27AB81E0B9
:1009A000888BDF91CF9108959A2B938B95A1A92BDA
:1009B000EACF80E0ECCFEF92FF920F931F93CF939B
:1009C000DF93182F062FE82FF0E0EE0FFF1FE25005
:1009D000FE4FC081D181209729F18881882369F059
:1009E000FE0111927F016BE0812F0E945D0421E0E6
:1009F00040E06FE0C7010E9435038889882391F0A9
:100A0000188A60E0812F0E945D04202F40E066EB91
:100A1000CE014196DF91CF911F910F91FF90EF9002
:100A20000C943503DF91CF911F910F91FF90EF90C0
:100A300008950F931F93CF93DF930E9410030EEF3F
:100A400011E0C0E0D1E0D8018D919C91009711F0A8
:100A50000E94192820E04AE06BE08C2F0E94780465
:100A60000E941F03882359F180911C038F3FE9F4F2
:100A700061E070E08EE891E00E946427FC01D801FB
:100A80008D939C938C2F880F886E81831282818B2B
:100A9000128AD083D08B61E08C2F0E94DB0421E08E
:100AA0004AE06BE08C2F0E947804CF5F0E5F1F4FEF
:100AB000C43049F6DF91CF911F910F910895B5E0B1
:100AC000BA95F1F70000CCCFFF920F931F93CF930D
:100AD000DF93F42ED22F8131B8F18051C7E0082F77
:100AE00010E096E0899FF0011124ED5CFE4F4181FA
:100AF000442329F0262F60818C2F0E949B0486E0DE
:100B0000809FF001819FF00D1124ED5CFE4F438129
:100B1000442329F02F2D62818C2F0E949B0486E0B4
:100B2000809FF001819FF00D1124ED5CFE4F458107
:100B3000442361F02D2F64818C2FDF91CF911F9181
:100B40000F91FF900C949B04C6E0C9CFDF91CF9129
:100B50001F910F91FF9008951F93CF93DF93C82F9C
:100B60008830F8F4882329F0EC2FF0E0E856FE4FA7
:100B7000C08111E0D1E02C2F4D2F612F80E00E9429
:100B80009B042C2F4D2F612F81E00E949B04DF5F7F
:100B9000DA3089F71F5F1A3069F7DF91CF911F9123
:100BA0000895C8E0E1CF0F931F93CF93DF93D82F21
:100BB000162F042FC1E0202F412F6D2F8C2F0E9464
:100BC0006405CF5FC132B9F7DF91CF911F910F91CB
:100BD00008950F931F93CF93DF93C0E3D3E008E111
:100BE00011E08091280380FF13C02A814881698128
:100BF000F80180810E94640523960F5F1F4FF3E088
:100C0000C138DF0771F7DF91CF911F910F910895E0
:100C100020E040E060E0ECCF0F931F93CF930EEF06
:100C200011E0D801ED91FC91C1E0C08B61E080E062
:100C30000E94DB04D8011696ED91FC911797C08BAA
:100C400061E083E0CF911F910F910C94DB040F932F
:100C50001F93CF930FB6F894A89580916000886198
:100C600080936000109260000FBE80E00E94AC058F
:100C700040E060E080E00E94D3050E940C0640E066
:100C800060E080E00E94D30508E111E0F801C19125
:100C90008F0120E040E06FEF8C2F0E9464050E94DE
:100CA0000C06FFEF24E38CE0F15020408040E1F798
:100CB00000C0000020E04FEF60E08C2F0E94640530
:100CC0000E940C069FEFE4E3FCE09150E040F0400E
:100CD000E1F700C000002FEF40E060E08C2F0E94A1
:100CE00064050E940C062FEF84E39CE021508040B5
:100CF0009040E1F700C0000020E040E060E08C2F71
:100D00000E9464050E940C06E1E003331E0709F00F
:100D1000BDCF9CE088E10FB6F894A8958093600061
:100D20000FBE90936000CF911F910F9108950C9486
:100D300019050E9437088EEF8093800089E1809327
:100D400081008FEF9FEF9093870080938600109231
:100D50008D0010928C0010928B0010928A008FEF01
:100D60009FE0909389008093880084B1806E84B95D
:100D70003E9A46980E9419059DE088E10FB6F894C6
:100D8000A895809360000FBE909360000895CF9265
:100D9000DF92EF92FF920F931F938091E2028160A6
:100DA0008093E202A89580910A0290910B02A09193
:100DB0000C02B0910D02893E9340A105B10560F08F
:100DC00010920A0210920B0210920C0210920D0265
:100DD0000E9410030E940C060E941F03882309F43E
:100DE0008EC010920A0210920B0210920C02109206
:100DF0000D0280910602682F0E94DB04809106029A
:100E000090910702A0910802B0910902892B8A2BC8
:100E10008B2B09F467C01092060210920702109201
:100E20000802109209020091B5021091B6022091B9
:100E3000B7023091B8028091060190910701A0910C
:100E40000801B091090180179107A207B30709F4BF
:100E500041C0E1EAF1E080E090E0DC01C080D180B7
:100E6000E280F3804481558166817781402351235C
:100E700062237323C416D506E606F70609F053C0AD
:100E80002EE0289FF001299FF00D1124EF55FE4F11
:100E900080859185909389008093880082859385D1
:100EA00090938B0080938A008485958590938D0024
:100EB00080938C008091B5029091B602A091B70208
:100EC000B091B8028093060190930701A0930801A6
:100ED000B09309011F910F91FF90EF90DF90CF9099
:100EE0000C94380883E090E0A0E0B0E08093060224
:100EF00090930702A0930802B093090294CF8091C7
:100F00000A0290910B02A0910C02B0910D02019681
:100F1000A11DB11D80930A0290930B02A0930C02B5
:100F2000B0930D0280CF3E96CF20CE20CD20C0942E
:100F300009F4A6CF0196A11DB11D90CFCF92DF92EB
:100F4000EF92FF92CF93DF93FC018281613039F5FC
:100F5000811115C0CAE9DDE10E94DA1D827240915B
:100F6000B5025091B6026091B7027091B802452B5C
:100F7000462B472B39F4811107C089E206C0CEE524
:100F8000DDE1EACF8111F9CF85E3FE010995DF911B
:100F9000CF91FF90EF90DF90CF900C94261E882386
:100FA00049F1623061F06930E9F0611123C0DF91ED
:100FB000CF91FF90EF90DF90CF900C94011CC12C4B
:100FC000D12C7601C39404C0CC0CDD1CEE1CFF1C9C
:100FD0004A95D2F78C2D0E948E1EC701B6010E9441
:100FE000A31BE5CFDF91CF91FF90EF90DF90CF90E3
:100FF0000C942706DF91CF91FF90EF90DF90CF9078
:10100000089514BE0FB6F894A89580916000886189
:1010100080936000109260000FBEA8951092890026
:10102000109288008FEF9FE090938B0080938A004E
:1010300090938D0080938C000C943E080F931F9327
:10104000CF93DF93EC018B01C11580E7D80711F432
:101050000E940108B801CE01DF91CF911F910F913D
:101060000C9439080C943B0880E090E008950895B2
:10107000089581E00895089581E008950E94B017D1
:101080002FEF84E39CE0215080409040E1F700C0C6
:1010900000000C942C1F0F931F93CF93DF938C01B0
:1010A000FC01C081D181CE010E94DC1CBE010E94E6
:1010B000580BEC01B8010E941E08882331F0B801DA
:1010C000CE010E94EE0B8111DDC080E0DF91CF9157
:1010D0001F910F910895F80182818823B1F30E9436
:1010E0003E08F3CFF8018281882379F38091E202F0
:1010F00081608093E202E9CFF8018281882329F39D
:101100000E94F70FE2CFF80182818823F1F20E945A
:10111000D80EDBCF8823C9F20E94F00ED6CF8823E9
:10112000A1F20E940F0FD1CFF8018281882369F2CA
:101130000E94440FCACFF8018281882331F20E94B5
:101140005F0FC3CFF8018281882309F4B8C00E94E1
:101150007B1E811102C00E94551E0E94931E90E0CA
:101160009093860380938503FE01E350F047E231BC
:10117000F105C0F4E054F74F809185030C945B2790
:10118000DE08E008EB08E208E408E608E808EA08F8
:10119000ED08EF08F108FC08F308F508F708F9086E
:1011A000FB08FE0880918503816080938503809110
:1011B00085030E94971E0E94B01787CF8260F5CFEB
:1011C0008460F3CF8061F1CF8062EFCF8064EDCF98
:1011D0008068EBCF84608860E8CF8E7FE6CF8D7F1C
:1011E000E4CF8B7FE2CF8F7EE0CF8F7DDECF8F7B12
:1011F000DCCF8F77DACF8B7F877FD7CF87FB99279D
:1012000090F921E0922790FB87F9CFCFF8018281F6
:10121000882361F0109210020E94D11E90930F0259
:1012200080930E0282E00E9429154FCF8091100218
:1012300081110FC080910E0290910F020E94DD1E5D
:10124000883C910530F486E20E94FE1386E20E94FB
:10125000DA1482E00E94301538CF8091110281119A
:101260000FC080910E0290910F020E94DD1E883CFB
:10127000910530F487E20E94FE1387E20E94DA149F
:1012800080E2E8CFC633F0E7DF0709F43CCF70F522
:10129000C53190E7D907D0F4C230E0E7DE0708F0A7
:1012A00051CFC115F0E7DF0709F415CFC130D047A2
:1012B00009F418CF81E08093100280931102C801D5
:1012C000DF91CF911F910F910C943C08C43390E7AC
:1012D000D90709F411CFC533D04761F7F8018281EE
:1012E000882309F4F2CE0E94ED0FEFCECA33F0E767
:1012F000DF0709F419CF78F4F8018281C833F0E7E9
:10130000DF0709F40CCF08F405CF882309F4DDCEFC
:101310000E942A0FDACECC33E0E7DE0709F476CF5D
:1013200008F409CFCD33D04729F6F801828188230C
:1013300009F493CF109211020E94D11E90930F02D4
:1013400080930E0280E26FCF0C94C7060E9497062E
:101350000C9499060C943208972F70E021E1929F2B
:10136000600D711D1124FB0145E5849FE00DF11D09
:101370001124EE0FFF1FEC55FF4F859194910E94B1
:101380006C0B811520E5920708F048C0811540E4F8
:10139000940708F001C1883E910530F5803E910523
:1013A00008F085C1883A910580F4853A910508F0E6
:1013B0008EC08130910509F47AC120F08430910506
:1013C00008F075C180E090E008958D3B910508F428
:1013D00089C0803C9105B0F3FC01EE0FFF1FE85E71
:1013E000F040859194910895811520E2920750F480
:1013F000811541E0940708F05AC1803F910510F330
:1014000090650895811520E3920708F0C2C0FC01A1
:10141000FF70EE0FFF1FE856FF4FE3CF811545E544
:10142000940760F5811524E5920708F0E4C0811562
:1014300042E5940750F4811521E5920708F4AFC006
:10144000982F8827816F906A0895E82FE695E69592
:101450009C01237033278115934508F0BDC081E0BE
:1014600090E002C0880F991F2A95E2F720E2E29FE0
:10147000F00111248E2B9F2B9C680895803320E768
:10148000920790F4803240E7940708F0BFC08115BE
:1014900026E5920708F4B4C09C013056211530416E
:1014A00008F090CF9F70B0C0813320E7920709F415
:1014B000B4C008F4AFC0823320E7920709F4B0C08B
:1014C0008333904709F07ECF80E093ED0895853A0D
:1014D000910509F4A8C0863A910509F0A7C082E8F1
:1014E00090E40895883A910509F4A3C0893A9105DA
:1014F00009F4A2C08A3A910509F4A1C08B3A91057A
:1015000009F4A0C08C3A910509F49FC08B3B91056A
:1015100009F49EC08C3B910509F49DC08D3A91055C
:1015200009F49CC0803B910509F49BC08E3A91055B
:1015300009F49AC08F3A910509F499C0813B91054D
:1015400009F498C0823B910509F497C0833B91054B
:1015500009F496C0843B910509F495C0853B91053B
:1015600009F494C0863B910509F493C0873B91052B
:1015700009F492C0883B910509F491C0893B91051B
:1015800009F490C08A3B910509F48FC080E094E48F
:1015900008959927906C08959F70906A08959C0112
:1015A00054E0369527955A95E1F7922F9370482F7E
:1015B000437021E030E002C0220F331F4A95E2F76A
:1015C0003C68392B86958695837040E2849FC001E4
:1015D0001124822B932B089581E090E002C0880FA4
:1015E000991F2A95E2F740E2E49FF00111248E2B27
:1015F0009F2B9A680895982F8827846F906A089582
:10160000982F882788279F7190620895805290476D
:10161000946D089580E091ED089580E090ED089537
:1016200080E092ED089581E890E4089583E890E4E5
:10163000089582EE94E4089589EE94E408958AEE84
:1016400094E4089585EB94E4089586EB94E408957A
:1016500083EB94E4089584EB94E4089587EB94E499
:1016600008958CEC94E408958DEC94E4089583E857
:1016700095E408958AE895E4089582E995E408954B
:1016800084E995E4089581E296E4089583E296E47E
:10169000089584E296E4089585E296E4089586E24A
:1016A00096E4089587E296E408958AE296E4089520
:1016B000972F70E021E1929F600D711D1124FB01B5
:1016C00095E5899FE00DF11D1124EE0FFF1FEC55EC
:1016D000FF4F8591949108958238910549F1B0F4B6
:1016E0008133910509F45AC048F48932910509F40F
:1016F00050C08A32910509F456C00895853391058A
:1017000009F442C08933910599F00895833E91050B
:1017100021F138F4803E910581F0823E9105A1F0DF
:101720000895863E910501F1873E910531F10895B6
:10173000209185032370E1F508952091850320FF12
:1017400012C089E390E008952091850322FF0BC029
:1017500024FF31C080E090E008952091850322FDB0
:101760002DC024FDF7CF08952091850323FFFBCFE3
:1017700024FDF0CF87EE90E008952091850323FFAC
:10178000F0CF86EE90E008952091850325FD19C0E5
:1017900008952091850325FD17C0089520918503A4
:1017A00026FD15C008952091850326FD13C00895D8
:1017B00080EE90E0089583EE90E0089582EE90E050
:1017C000089589E290E0089585E390E008958AE223
:1017D00090E0089581E390E0C6CF08950F931F93A2
:1017E000CF938C01FB018281811106C0C1E08C2F57
:1017F000CF911F910F910895C0911F02C11125C073
:101800000531104799F70E94ED0B81E080931F028C
:101810000E94D11E90931E0280931D02109212020C
:1018200010921402109213021092160210921502D6
:10183000109218021092170210921A0210921902B6
:1018400010921C0210921B02D2CF80911D02909127
:101850001E020E94DD1E883C910540F68091120216
:10186000E82FF0E0EE0FFF1FED5EFD4F11830083C8
:101870008F5F80931202C0E0BACF85B7806885BFC2
:1018800085B7806885BFAAEEB1E061E070E08D9118
:10189000E82FE295EF70F0E041A18F709B0101C04D
:1018A000220F8A95EAF7922F9095942391A382A113
:1018B000822B82A381E0AF3EB80749F7A9EDB1E0E2
:1018C00061E070E08D91E82FE295EF70F0E041A1CA
:1018D0008F709B0101C0220F8A95EAF7922F909595
:1018E000942391A382A1822B82A381E0AA3EB80710
:1018F00049F7E4E3F2E0A0E2B2E088E492E011927A
:101900001192119211921D921D921D921D928E178D
:101910009F07A9F70C94A6092F923F924F925F92CE
:101920006F927F928F929F92AF92BF92CF92DF92EF
:10193000EF92FF920F931F93CF93DF93CDB7DEB754
:101940002C970FB6F894DEBF0FBECDBF00E212E0B9
:101950001A8309830AEE11E01E830D8300E212E070
:101960001C870B8788248394912CC12CD12C760161
:10197000C394BB24B394AB85BC854D905D906D90B2
:101980007C901397FD011082118212821382AD8127
:10199000BE818D91BE83AD83E82FE295EF70F0E0BC
:1019A00091A18F70140101C0220C8A95EAF7892F4A
:1019B000822981A382A1A22CA0948A2182A3B0EAC9
:1019C000BA95F1F709ED11E01C830B8380E090E0FC
:1019D000AB81BC813D91BC83AB83A32FA295AF703B
:1019E000B0E090961C91AB85BC854D915D916D9159
:1019F0007C914F83588769877A873F70A40102C022
:101A0000440F551F3A95E2F79A01212309F081C04E
:101A1000B701A601082E04C0440F551F661F771F8B
:101A20000A94D2F78A019B014F81588569857A858E
:101A3000402B512B622B732BAB85BC854D935D9353
:101A40006D937C93139701968131910509F0C0CF76
:101A500081A1A822A1A282A1822982A3FD01808165
:101A60009181A281B381481659066A067B0641F02E
:101A7000B09248020E94D11E90934A02809349027C
:101A80000B851C850C5F1F4F1C870B87045312406E
:101A900009F071CF809148028823F9F080914902C2
:101AA00090914A020E94DD1E0697B8F044E352E08E
:101AB000E981FA8181919191A191B191FA83E983B0
:101AC000FA0181939193A193B193AF0109811A8196
:101AD0000453124069F7109248020E94A40981E061
:101AE0002C960FB6F894DEBF0FBECDBFDF91CF911D
:101AF0001F910F91FF90EF90DF90CF90BF90AF902C
:101B00009F908F907F906F905F904F903F902F901D
:101B1000089500E010E0980187CF94E0899FF001DC
:101B20001124EC5CFD4F6081718182819381089565
:101B30000895CF92DF92EF92FF920F931F93CF936E
:101B4000DF93E901662309F469C0E42EF12CEFEF7D
:101B5000F0E0E61BF109EE9D8001EF9D100DFE9D6A
:101B6000100D1124212FE12FFF27EE1AFF0A5CE34D
:101B7000C52ED12CB6010E943327FB01BC01E69E85
:101B8000C001E79E900DF69E900D1124B6010E94B3
:101B90003327E230F105A1F140F4309779F0319725
:101BA00059F180E020E040E00CC0E430F10591F113
:101BB00068F13597B1F7842F861B03C0812F262F3C
:101BC000210FE42FF0E0EB5FFC4F4491E22FF0E0B7
:101BD000EB5FFC4F9491E82FF0E0EB5FFC4FE4915A
:101BE00049839883EA83DF91CF911F910F91FF90F2
:101BF000EF90DF90CF900895812F242F461BE1CFE7
:101C0000862F810FE42F412F2E2FDBCFE42FE61BF1
:101C1000842FF9CF842F462F410FD3CF842F242F29
:101C2000D0CF88E090E00C94B328AB01BC0188E0F1
:101C300090E00C94D128E8E2F3E083E080831092F6
:101C400029038FEF82838383609128037091290396
:101C500080912A0390912B030C94150EE0E3F3E09E
:101C6000818360834283339693E0E138F907C1F7BB
:101C70000C94E905EF92FF920F931F93CF93DF939C
:101C800000D01F92CDB7DEB7182FE92EF62E042F05
:101C90008091280390912903A0912A03B0912B03EE
:101CA00080932C0390932D03A0932E03B0932F03C6
:101CB0008091280380FF1FC09E012F5F3F4F812F1F
:101CC0009E2D0E94990D80912C0310FB87F9809323
:101CD0002C03169580912D038078812BE0FA87F9EB
:101CE00080932D03F0922E0300932F034B81698183
:101CF0008A810E942E0E0F900F900F90DF91CF914E
:101D00001F910F91FF90EF9008950F931F93CF9322
:101D1000DF93EC01062F142F9091280390FF43C00E
:101D2000892F8E77823021F5CE010E943A0E809164
:101D30002803C0FB87F980932803C6958091290367
:101D40008078C82BD0FBC7F9C093290300932A03DE
:101D500010932B03609128037091290380912A032B
:101D600090912B03DF91CF911F910F910C94150E41
:101D7000892F86958F732EE3280F2F73243018F444
:101D800010912B03D4CF865C8F73893080F6991F16
:101D90009927991FD0912903CD2FCC0FC92BD7FBA1
:101DA000DD27D0F9C4CFDF91CF911F910F91089516
:101DB000E8E2F3E02081221F2227221F309129032D
:101DC000432F440F842F822B37FB992790F90A96D3
:101DD00068E671E00E944727438162810C94850E7A
:101DE00020912803221F2227221F30912903432FED
:101DF000440F842F822B37FB992790F98A30910565
:101E000044F4825A9E4F40912B0360912A030C9414
:101E1000850E0A9768E671E00E944727F4CF60912B
:101E20002A03862F90E08F3E910594F46F5E809197
:101E30002803881F8827881F90912903292F220FA4
:101E400097FB992790F940912B03822B0C94850ED8
:101E50006FEFEDCF60912A03862F90E0419794F0C9
:101E6000615180912803881F8827881F909129033A
:101E7000292F220F97FB992790F940912B03822B52
:101E80000C94850E60E0EDCF40912B03842F90E001
:101E90008F3E910594F44F5E80912803881F882718
:101EA000881F90912903292F220F97FB992790F9DA
:101EB00060912A03822B0C94850E4FEFEDCF409159
:101EC0002B03842F90E0419794F041518091280397
:101ED000881F8827881F90912903292F220F97FB9D
:101EE000992790F960912A03822B0C94850E40E08B
:101EF000EDCF9091280390FF3BC09178811126C0CF
:101F00009260909328036091280370912903809137
:101F10002A0390912B030E94150E80912803982F7D
:101F20009E779230D9F410926002881F8827881F0C
:101F300090912903292F220F97FB992790F940911F
:101F40002B0360912A03822B0C94850E893110F0AB
:101F50009063D7CF8F73880F982BD3CF982F9695F8
:101F6000925C9F73963108F791E090936002DDCF09
:101F700008958091E20281608093E20281E0809383
:101F800061020E947B1E811104C00E94551E0E94A6
:101F90001B0E0E94110E60932803709329038093F7
:101FA0002A0390932B036E7761F40E941B0E0E940C
:101FB000110E609328037093290380932A03909352
:101FC0002B0381E0809360028091280380FF04C08E
:101FD00086958F730C94790F0895809128038695C8
:101FE0008F738F5F893108F081E00C94790F8091B5
:101FF0002803982F909590FB80F980932803609197
:1020000028037091290380912A0390912B030E9449
:10201000150E8091280380FF04C086958F730C9461
:10202000790F109260022FEF80E792E021508040FC
:102030009040E1F700C000000C94E905CF93C82F51
:1020400080915E0290915F020E94DD1EEC2FF0E015
:10205000EF5FFD4FE491F0E08E179F0718F10E94AB
:10206000D11E90935F0280935E02E0915D02F0E0EA
:10207000EB5FFD4F449180912803881F8827881FBC
:1020800090912903292F220F97FB992790F96091AE
:102090002A03822B0E943A0E80915D0290E0019605
:1020A00080935D02CF910895CF93C82F80915B02FA
:1020B00090915C020E94DD1EEC2FF0E0E250FE4F9A
:1020C000E491F0E08E179F07E8F00E94D11E9093F4
:1020D0005C0280935B0240912B0360912A03809104
:1020E000590290915A020E943A0E809159029091A1
:1020F0005A02019668E671E00E94332790935A02D3
:1021000080935902CF910895DF92EF92FF920F933F
:102110001F93CF93DF93D82E80915702909158024E
:102120000E94DD1EED2DE695F0E0E250FE4FE491B9
:10213000F0E08E179F07A8F10E94D11E90935802DD
:102140008093570200E313E0C0E0D0E088E6E82E79
:10215000FF24F39480915502909156028C0F9D1F9D
:10216000B7010E943327980140912B0360912A0305
:102170000E94990D2D960D5F1F4FCF3581E0D80736
:1021800049F70E94E9058091550290915602D0FED0
:1021900010C00196B7010E94332790935602809396
:1021A0005502DF91CF911F910F91FF90EF90DF903B
:1021B00008950197F2CFAF92BF92CF92DF92EF9244
:1021C000FF920F931F93CF93DF93C82F80FF71C0AF
:1021D000FF24FA9480915302909154020E94DD1ED4
:1021E000C695EC2FF0E0E550FE4FE491F0E08E173D
:1021F0009F0708F453C00E94D11E9093540280930D
:102200005302C0E3D3E000E010E097E0C92ED12CE8
:10221000198218821A8287E0A82EB12CE12C8091B5
:1022200052028E0D87FD855E082E000C990B081753
:102230001907E9F420912B032A9DC0012B9D900DD5
:102240001124B6010E944727462F80912803881F3A
:102250008827881F90912903592F550F97FB99279D
:1022600090F99E0160912A03852B0E94990DEF0C35
:1022700081E0A81AB10899F60F5F1F4F23960B3122
:10228000110531F60E94E9058091520291E0F912A0
:1022900015C0811111C08AE180935202DF91CF9164
:1022A0001F910F91FF90EF90DF90CF90BF90AF9074
:1022B0000895FF24F3948ECF8150EECF90E00196E5
:1022C000B8010E944727E8CFBF92CF92DF92EF92EA
:1022D000FF920F931F93CF93DF93CDB7DEB7C15516
:1022E000D1090FB6F894DEBF0FBECDBF182F809175
:1022F0005002909151020E94DD1EE12FF0E0E85063
:10230000FE4FE491F0E08E179F0708F47AC00E9418
:10231000D11E90935102809350028E010F5F1F4F88
:10232000E12CF12C6801D80111961C9211971C9296
:1023300012961C92B12C90910A0180914F02B99E85
:10234000800D11248B310CF08AE187FD80E0082E8E
:10235000000C990BE816F906A1F480912803881F58
:102360008827881F90912903592F550F97FB99278C
:1023700090F9980140912B0360912A03852B0E94CC
:10238000990DB394B7E0BB12D6CFEFEFEE1AFE0A69
:102390000D5F1F4FFBE1EF16F10429F620E333E058
:1023A00009E010E05BE1E52EF12CC801B7010E94C5
:1023B0004727FC01EE0FFF1FE80FF91FEC0DFD1D75
:1023C0008181D90111968C93119780818C938281A0
:1023D00012968C930F5F1F4F2D5F3F4F04321105F4
:1023E00021F70E94E90590910A0180914F029130F6
:1023F000E9F48A3FBCF489EF80934F028FEF80931A
:102400000A01CF5ADF4F0FB6F894DEBF0FBECDBF23
:10241000DF91CF911F910F91FF90EF90DF90CF90C0
:10242000BF900895815080934F02EBCF82322CF001
:1024300081E280934F0281E0E2CF8F5FF4CFEF9291
:10244000FF920F931F93CF93DF9380914D02909152
:102450004E020E94DD1E883E934008F441C00E9457
:10246000D11E90934E0280934D0280914B02909129
:102470004C0201968170992790934C0280934B02F5
:102480002BE1289F8001299F100D1124C0E0D0E08E
:1024900089E0E82E90E5F92E9E01205D3C4FEC9EF0
:1024A000C001ED9E900D1124800F911F817099271E
:1024B00040912B0360912A03FC01FE9EC001FF9E08
:1024C000900D11240E94990D2396C135D10521F755
:1024D000DF91CF911F910F91FF90EF900C94E90540
:1024E000DF91CF911F910F91FF90EF900895809110
:1024F0006002882371F18091280386958F739EE393
:10250000980F9F73943018F482500C941E109AE325
:10251000980F9F73933018F486500C94541097E3DF
:10252000980F9F73963018F489500C94841091E39F
:10253000980F9F73963018F48F500C94DB109BE229
:10254000980F9F73933018F485510C9464110C9478
:102550001F12089590936702809366020895E09198
:102560006602F0916702309721F00190F081E02D32
:10257000099480E00895E0916602F0916702309737
:1025800021F00280F381E02D0994089520916402E6
:10259000309165022817390771F090936502809396
:1025A0006402E0916602F0916702309721F00680A4
:1025B000F781E02D09940895209162023091630221
:1025C0002817390771F09093630280936202E091BB
:1025D0006602F0916702309721F00084F185E02DCA
:1025E0000994089508950C94F2120E94C81E0E9446
:1025F0003D0C0E944E1F0E94C81F0C94B90F4F92B1
:102600005F926F927F928F929F92AF92BF92DF9272
:10261000EF92FF920F931F93CF93DF93CDB7DEB767
:102620002A970FB6F894DEBF0FBECDBF0E948C0C68
:1026300029E6E22E22E0F22E00E010E0D02E802FDC
:102640000E948D0D4B015C01F7014190519061900A
:1026500071907F016415750586059705B1F40F5FCC
:102660001F4F0530110551F78FEF89838A831B8235
:102670000E94D11E8160782F9D838C8349815A816D
:102680006B818D810E94D0134EC08091E20281FD4A
:102690000E94980D80E090E0482459246A247B240D
:1026A000B301A201082E04C076956795579547950A
:1026B0000A94D2F740FF58C08E83DF82412C512C00
:1026C0003201439404C0440C551C661C771C8A9547
:1026D000D2F784209520A620B72081E089288A2877
:1026E0008B2809F480E088870E94D11E8160782FB2
:1026F0009A8789874E815F8168858A850E94D01379
:10270000000F111F000F111FF801E759FD4F8081C5
:102710009181A281B38184259525A625B725808343
:102720009183A283B3830E94AF12909168028917AC
:1027300009F10E94AF12809368022A960FB6F894AE
:10274000DEBF0FBECDBFDF91CF911F910F91FF90E4
:10275000EF90DF90BF90AF909F908F907F906F90A1
:102760005F904F900C94AA0901968131910509F070
:1027700097CF75CF2A960FB6F894DEBF0FBECDBFA8
:10278000DF91CF911F910F91FF90EF90DF90BF905D
:10279000AF909F908F907F906F905F904F90089533
:1027A000CF93DF93CDB7DEB72B970FB6F894DEBF8C
:1027B0000FBECDBF4F83588769877A878B87DE012D
:1027C000119686E0FD0111928A95E9F785E0FE01F8
:1027D000379601900D928A95E1F749815A816B8174
:1027E0007C818D819E810E94791A2B960FB6F89478
:1027F000DEBF0FBECDBFDF91CF910895882309F4CE
:10280000D8C0823871F40E94AF1281FDD2C089E332
:102810000E945E1D0E94261E89E30E949A1D0C9450
:10282000261E833859F40E94AF1280FDC2C083E592
:102830000E945E1D0E94261E83E5EFCF843859F466
:102840000E94AF1282FDB5C087E40E945E1D0E9407
:10285000261E87E4E2CF9CEF980F913A18F40E946D
:102860005E1DDDCF90E2980F983050F4877091E0B4
:1028700001C0990F8A95EAF7892F0E94DD1DCFCFFD
:102880009BE5980F933070F4853A31F0863A39F031
:1028900083E890E00C94C61281E890E0FBCF82E8D8
:1028A00090E0F8CF98E5980F953108F082C0883A0B
:1028B00009F440C0893A09F440C08A3A09F440C09A
:1028C0008B3A09F440C08C3A09F440C08B3B09F4C0
:1028D00040C08C3B09F440C08D3A09F440C0803BB5
:1028E00009F440C08E3A09F440C08F3A09F440C060
:1028F000813B09F440C0823B09F440C0833B09F4AA
:1029000040C0843B09F440C0853B09F440C0863B8D
:1029100009F440C0873B09F440C0883B09F440C03B
:10292000893B09F440C08A3B09F440C080E090E054
:102930000C94DC1282EE90E0FBCF89EE90E0F8CFB1
:102940008AEE90E0F5CF85EB90E0F2CF86EB90E059
:10295000EFCF83EB90E0ECCF84EB90E0E9CF87EB17
:1029600090E0E6CF8CEC90E0E3CF8DEC90E0E0CF10
:1029700083E891E0DDCF8AE891E0DACF82E991E067
:10298000D7CF84E991E0D4CF81E292E0D1CF83E246
:1029900092E0CECF84E292E0CBCF85E292E0C8CF46
:1029A00086E292E0C5CF87E292E0C2CF8AE292E06F
:1029B000BFCF0895882309F44BC0823871F40E9478
:1029C000AF1281FF45C089E30E945E1D0E94261E52
:1029D00089E30E949A1D0C94261E833859F40E94A4
:1029E000AF1280FF35C083E50E945E1D0E94261E47
:1029F00083E5EFCF843859F40E94AF1282FF28C0DC
:102A000087E40E945E1D0E94261E87E4E2CF9CEFB1
:102A1000980F913AF0F290E2980F983050F4877046
:102A200091E001C0990F8A95EAF7892F0E94E31D72
:102A3000D2CF9BE5980F933020F480E090E00C9487
:102A4000C612885A853120F480E090E00C94DC12A4
:102A50000895882321F00E94DD1D0C94261E089500
:102A6000882321F00E94E31D0C94261E08958F9266
:102A70009F92AF92BF92DF92EF92FF920F931F93BC
:102A8000CF93DF937C01D62FC72FFC0105810295E0
:102A90000F70128111110E94FC1D0E94571DD82E2B
:102AA000882371F0112331F180E28D0F883010F10D
:102AB00082E00E94401D0E94571D91E0D82ED92629
:102AC000EC2FE295EF708E2F90E0FC01E659FA4E64
:102AD0000C945B277C157C15CD15CD150C16AA150D
:102AE000AA15AA152A16AA15C516C516371740170E
:102AF000AA156017D12CE4CF8C2F807FCF7088234C
:102B000011F0C295C07F1123A9F0CC2359F080E2C7
:102B10008D0F883010F0D11109C08C2F0E94DD1D5F
:102B20000E94261E8D2F0E94FE1314C08C2F0E941F
:102B3000EE1DF6CF8D2F0E94DA14CC2359F080E2DF
:102B40008D0F883010F0D11124C08C2F0E94E31D0E
:102B50000E94261EDD2009F4BAC10E94331D80FDAB
:102B6000B6C1F70112820E942D1D0E94201CC701D0
:102B70000E9473170E942D1DDF91CF911F910F911D
:102B8000FF90EF90DF90BF90AF909F908F900C944C
:102B9000411C8C2F0E94F41DDBCF8C2F807FCF70C7
:102BA000803211F0C295C07FDD2369F0D13021F170
:102BB000112361F1002359F0F701858180FFB2CF25
:102BC0008F70858304C0112361F0011104C08C2F24
:102BD0000E942915BFCF8C2F0130D1F70E94101E03
:102BE000B9CF011106C00E94131E8C2F0E94301510
:102BF000B1CF0130C1F7AECF112321F0063008F07C
:102C0000A9CFE5CF053008F0A5CFEFCF002369F3BA
:102C10008D2F0E94DA149ECF8C2F86958695837017
:102C200059F0813009F096CF112389F08D2F9C2F18
:102C300093700E94DC128ECF112331F08D2F9C2FC8
:102C400093700E94C61286CF80E090E0FACF80E0B9
:102C500090E0EFCF8C2F837009F048C011117ACF2C
:102C60002D2F229526952770220F220F6D2F6F7022
:102C7000862E912CA12CB12C022E04C0880C991CFC
:102C8000AA1CBB1C0A94D2F7D4FF1EC06FE070E0F0
:102C900080E090E004C0660F771F881F991F2A9577
:102CA000D2F76095709580959095C695C695C3703E
:102CB000C23071F0A0F4682979298A299B29C13092
:102CC00091F00E94C91B46CF60E070E0CB01EDCFD0
:102CD000682979298A299B290E94E51B3BCF0E94FC
:102CE000C91BC501B4010E94AD1B34CF1123C9F12A
:102CF0008C2F8170882309F42DCF2D2F22952695B6
:102D00002770220F220F6D2F6F70862E912CA12C11
:102D1000B12C022E04C0880C991CAA1CBB1C0A945E
:102D2000D2F7D4FF20C06FE070E080E090E004C0F4
:102D3000660F771F881F991F2A95D2F760957095A7
:102D400080959095C695C695C370C23081F0B0F459
:102D5000682979298A299B29C130A1F00E94A31CE6
:102D6000F9CE8695C7CF60E070E0CB01EBCF682944
:102D700079298A299B290E94BF1CECCE0E94A31CA2
:102D8000C501B4010E94871CE5CE8D2F90E0FC01A7
:102D9000E05EF109E531F10508F061C0EE52F94E4F
:102DA0000C945B27E716E716E716E716E716E71613
:102DB000E716E716E716E716E716E716E716E7162B
:102DC000E716E716F4160217091710171A17DF701F
:102DD0008C2F8F71112321F00E94201C8D2FF8CE93
:102DE0000E94411C8D2F02CF112341F0053008F0C5
:102DF000B1CE8C2F8F710E94661CACCE063008F0CD
:102E0000A9CEF7CF112339F08C2F8F710E94201C8F
:102E1000A1CE1123C9F38C2F8F710E94411C9ACE31
:102E2000112329F08C2F8F710E940B1C93CE0E94CE
:102E3000011C90CE112349F0CF718C2F0E94201CD1
:102E400063E08C2F0E94371D85CE81E00E94401DDB
:102E5000023008F47FCE82E00E94401D7BCE112319
:102E600019F0002389F25ECE0023A9F2D1CE4C2FB7
:102E70004F706D2FC7010E9434080E94271B6ACE35
:102E8000111168CECF70C230A9F040F4CC2379F094
:102E9000C13009F05FCE0E94F41F5CCEC33069F0F0
:102EA000C43009F057CE8D2F0E94462053CE0E9489
:102EB000D91F50CE0E9410204DCE0E9423204ACE12
:102EC0004C2F4F706D2FC7010E949E0743CEDF919C
:102ED000CF911F910F91FF90EF90DF90BF90AF9037
:102EE0009F908F9008950F931F93CF93DF93EC01E2
:102EF000988189812B813C81232B39F08F3F19F4F4
:102F000081E09F3F19F080E001C081E080FD13C0A7
:102F1000CE010E944B08882371F0688179818A81F3
:102F20000E94291D8C010E94DB1C0E94A21BB8017B
:102F3000CE010E943715DF91CF911F910F91089517
:102F40000E94FC1D0E940D1E0E94CC1D0E94261E88
:102F500080E090E00E94C61280E090E00C94DC12C9
:102F60000E94EB1D0C94A0170E941E1DE92FE295F4
:102F7000EF704E2F50E0FA013297EE30F105D8F4A1
:102F8000EC53F84E0C945B27D217D217DB17DB17E4
:102F9000DD17DB17DB17DB17D217D217E217DB17AA
:102FA000DB17E217803F19F020F4803E20F481E027
:102FB0000895843FE1F380E00895803EC0F3813FAF
:102FC000D1F7F5CF93FB882780F90895CF93DF934E
:102FD00000D000D01F92CDB7DEB70F900F900F90AA
:102FE0000F900F90DF91CF910895CF93DF9300D092
:102FF00000D000D0CDB7DEB726960FB6F894DEBF6E
:103000000FBECDBFDF91CF9108951F93CF93DF9374
:10301000C0917D0216E080917E02C81304C0DF914A
:10302000CF911F910895D0E01C9FF0011D9FF00DDE
:103030001124E158FD4F4081518162817381848167
:1030400095810E94F5172196C770E5CF4091AF0298
:103050005091B0026091B1027091B2028091B302BE
:103060009091B4020C94F5171F93CF93DF93809146
:10307000B40282958F70D1F48091B1028823B1F0AF
:1030800080917D02D0917E02B091AF02C091B002DA
:103090004091B2025091B302A1E0BF3F09F0A0E01D
:1030A000BA016095709516E08D1304C0DF91CF9141
:1030B0001F91089541155105D9F1CF3FD9F120E075
:1030C00090E020FD3CC0189FF001199FF00D1124E5
:1030D000E158FD4F21812C1332C020812B132FC0CA
:1030E000228121112CC0238134812417350720F13E
:1030F000241B350B283C310510F52091B4022F70AC
:1031000020612093B40226E0289FF001299FF00D52
:103110001124EC57FD4F80818F70806180838FEA8E
:1031200092E00E947317DF91CF911F910C940518C4
:1031300021E0C6CF2A2FC4CF260F371FDBCF019641
:103140008770B2CFAF92BF92CF92DF92EF92FF9291
:103150000F931F93CF93DF93CDB7DEB761970FB671
:10316000F894DEBF0FBECDBF8C0185E0F801DE0113
:103170001D9601900D928A95E1F7D8014C91119618
:103180005C9111971296EC903091AF026091B00271
:103190008091B2029091B302009739F06F3F19F419
:1031A00021E03F3F19F020E001C021E0B22FB170D3
:1031B000BB2E20FD90C1F801C380D480A090B10245
:1031C000AA2009F432C12091B402C816D90610F120
:1031D000D601A81BB90BCD01FF24F394883C9105BF
:1031E000F0F0F12C207F09F0E9C07C2DD98AC88A43
:1031F0006E2D89890E94E6178FEA92E00E9473176C
:10320000EFEAF2E086E0DF011D928A95E9F70E947D
:1032100026181EC0809590958C0D9D1DDDCF822FA8
:10322000807F09F084C0651325C0341323C0FE2CB1
:10323000E11020C02F7020612093B4020E94261854
:103240008FEA92E00E9473178091B402F80185839F
:103250008F2D61960FB6F894DEBF0FBECDBFDF9104
:10326000CF911F910F91FF90EF90DF90CF90BF9083
:10327000AF900895CD2839F05F3F19F481E04F3FBA
:1032800019F080E001C081E080FD24C081E08E253E
:10329000F82FF170FF2E80FF3FC080917D022091BA
:1032A0007E0236E0821318C04D875E878D859E852D
:1032B0000E941E1D292F22952F70223008F12430E4
:1032C00030F59F7009F1D80115969C91907FE1F43B
:1032D000FB2CBECF80E0DCCF90E0389FF001399F1F
:1032E000F00D1124E158FD4F6181561306C0608135
:1032F000641303C06281E6120FC001968770D2CFBB
:103300009F7011F0882321F3805E883008F3C80194
:103310000E947317BF2CDCCFFE2CEE2009F498CF4F
:103320008091B40281608093B402F12C91CF651337
:1033300014C0341312C0E11010C08091B402F8011F
:103340008583C8010E94731786E0F801AFEAB2E0F6
:1033500001900D928A95E1F75ACF4D875E878D8552
:103360009E850E94B417882309F4BFC0EE2009F49B
:10337000BCC02091B402822F82958F7090E002979A
:1033800074F08091AF029091B00298878F83198674
:10339000DB86CA862C87CE0107960E94731786E0CB
:1033A000F801AFEAB2E001900D928A95E1F70E9430
:1033B00034180E942618FF24F3944ACF651314C0D2
:1033C000341312C0E11010C08091B402F80185835B
:1033D000C8010E94731786E0EFEAF2E0DF011D9258
:1033E0008A95E9F7FA2C34CF4D875E878D859E85C7
:1033F0000E94B417882309F478C0EE2009F475C040
:103400002091B402822F82958F7090E002973CF257
:103410008091AF029091B0029A8389831B82DD82F2
:10342000CC822E83CE010196B8CFC816D90680F083
:10343000F601E81BF90BCF01883C910570F0F12CE7
:103440007C2DD98AC88A6E2D89890E94E617D8CE2C
:10345000809590958C0D9D1DEFCFFE2CEE2009F4EC
:1034600044C0651327C0341325C08091B40280FD89
:1034700018C0982F92959F70292F30E021153105A3
:1034800081F0D80115968C9315972F30310509F4EA
:1034900058CF9F5F9295907F8F70892B15968C9354
:1034A00050CF86E0F801AFEAB2E001900D928A9524
:1034B000E1F7CECE4D875E878D859E850E94B4173D
:1034C00081116DCF8091B40281608093B402C801F4
:1034D0000E947317BDCEEE2041F04D875E878D852B
:1034E0009E850E94B41781115ACFC8010E9473179C
:1034F00062CF1F93CF93DF93CDB7DEB72C970FB674
:10350000F894DEBF0FBECDBF4F83588769877A8797
:103510008B879C87CE0107960E94A218882349F1C9
:103520009F8188852A853B85232B39F08F3F19F4AD
:1035300081E09F3F19F080E001C081E080FD08C07C
:103540004F81588569857A858B859C850E94F51702
:1035500016E080917D0290917E02891348C02C96DE
:103560000FB6F894DEBF0FBECDBFDF91CF911F9194
:10357000089586E0FE013796DE01119601900D92C6
:103580008A95E1F7FF81E8856A857B85611571057C
:1035900039F0EF3F19F481E0FF3F19F080E001C0FE
:1035A00081E080FDD5CF20917E0230E0C9010196F7
:1035B0008770992740917D0250E084179507C9F1E3
:1035C000F983EA837D836C8396E0929FD001939F79
:1035D000B00D1124A158BD4FFE01319601900D92FE
:1035E0009A95E1F780937E020E940518B1CF819FE2
:1035F000C001112481589D4F0E94A218882309F40C
:10360000AECFE0917D021E9FF0011124E158FD4FE5
:103610004081518162817381848195810E94F51777
:1036200080917D0290E001968770992780937D02BA
:1036300090CF0E94B01710927E0210927D02EFEAA6
:10364000F2E086E0DF011D928A95E9F788CFEF92DC
:10365000FF920F931F93CF93DF938C01892B81F0FF
:10366000F12CEE24E394E8012196F801849184374B
:1036700070F4843008F062C08130B1F08230B1F172
:10368000DF91CF911F910F91FF90EF9008958537B3
:1036900009F44FC008F43FC09CE7980F903780F7BB
:1036A0008F770E94DA144CC00E5F1F4FFE01849189
:1036B00090E2980F983060F48770FE2D01C0FF0FE4
:1036C0008A95EAF78F2F0E94FF1D0E94261E02C0D6
:1036D0000E94FE138F2D882309F4C5CFEFE9FFE088
:1036E0003197F1F700C000008150F5CF0E5F1F4FFA
:1036F000FE01849190E2980F983050F48770FE2D6F
:1037000001C0FF0F8A95EAF78F2F0E94051EDDCFBB
:103710000E94DA14DFCF0E5F1F4FFE01C491CC234D
:10372000C9F28FE99FE00197F1F700C00000C15096
:10373000F6CF0E5F1F4FFE01F490CCCF0E94FE1318
:103740008E01C8CF08956093B9027093BA02809336
:10375000BB029093BC020C94A0170F931F9300918F
:10376000B9021091BA022091BB023091BC02DC0177
:10377000CB01802B912BA22BB32B8093B90290937A
:10378000BA02A093BB02B093BC021F910F910C949C
:10379000A0170F931F930091B9021091BA022091C4
:1037A000BB023091BC02DC01CB0180239123A22318
:1037B000B3238093B9029093BA02A093BB02B09353
:1037C000BC021F910F910C94A0170F931F930091AF
:1037D000B9021091BA022091BB023091BC02DC0107
:1037E000CB0180279127A227B3278093B90290931A
:1037F000BA02A093BB02B093BC021F910F910C942C
:10380000A0171092B5021092B6021092B702109251
:10381000B8020C94A01741E050E060E070E004C0F2
:10382000440F551F661F771F8A95D2F74093B50244
:103830005093B6026093B7027093B8020C94A0172D
:1038400041E050E060E070E004C0440F551F661F87
:10385000771F8A95D2F78091B5029091B602A09118
:10386000B702B091B802842B952BA62BB72B80936F
:10387000B5029093B602A093B702B093B8020C942D
:10388000A01741E050E060E070E004C0440F551F15
:10389000661F771F8A95D2F7409550956095709571
:1038A0008091B5029091B602A091B702B091B80292
:1038B00084239523A623B7238093B5029093B60261
:1038C000A093B702B093B8020C94A01741E050E067
:1038D00060E070E004C0440F551F661F771F8A9593
:1038E000D2F78091B5029091B602A091B702B09143
:1038F000B80284279527A627B7278093B50290930F
:10390000B602A093B702B093B8020C94A0170F931D
:103910001F930091B5021091B6022091B702309129
:10392000B802DC01CB01802B912BA22BB32B80930F
:10393000B5029093B602A093B702B093B8021F915C
:103940000F910C94A0170F931F930091B502109143
:10395000B6022091B7023091B802DC01CB0180237E
:103960009123A223B3238093B5029093B602A09330
:10397000B702B093B8021F910F910C94A0170F9348
:103980001F930091B5021091B6022091B7023091B9
:10399000B802DC01CB0180279127A227B3278093AF
:1039A000B5029093B602A093B702B093B8021F91EC
:1039B0000F910C94A0170895BF92CF92DF92EF92CF
:1039C000FF920F931F93CF93DF938C01C090B502AA
:1039D000D090B602E090B702F090B8028091B902A0
:1039E0009091BA02A091BB02B091BC02C82AD92A18
:1039F000EA2AFB2ACFE1D0E0BC2ED701C6010C2E6B
:103A000004C0B695A795979587950A94D2F780FD3F
:103A10000EC0219788F7B12C8B2DDF91CF911F918C
:103A20000F91FF90EF90DF90CF90BF900895B80175
:103A30008C2F0E94AC09019761F3EECFCF93DF93F7
:103A4000EC010E94DC1CBE010E94AC09DF91CF9109
:103A50000895CB010E941E1D08958091BD02859599
:103A60008595859508958091BD028770089598E0A9
:103A7000899F90011124622B6093BD020C94201C3D
:103A80002091BD02809582238093BD02982F97706C
:103A900069F430E0482F082E000C550B2417350729
:103AA00029F08595859585950C94411C08959091F4
:103AB000BD02977081E009F480E0089590911701AC
:103AC0009923D9F09091850397FF17C0982F969569
:103AD000969596959F3131F1E0910B01F0910C0193
:103AE000E90FF11D877021E030E001C0220F8A95B7
:103AF000EAF78181822B8183089520910B01309117
:103B00000C01F90132969FEF40E05191851751F079
:103B10009F3F19F4511101C0942F4F5F4E31A9F707
:103B20009F3F09F40895290F311D97FD3A95F9013A
:103B300082830895909117019923E9F0909185036C
:103B400097FF19C0982F9695969596959F3119F1E4
:103B5000E0910B01F0910C01E90FF11D282F277066
:103B600081E090E001C0880F2A95EAF78095918165
:103B700089238183089520910B0130910C01F90173
:103B80003296205E3F4F9081891301C0108231969A
:103B9000E217F307C1F7089581E090E0E0910B018F
:103BA000F0910C01E80FF91F108201968032910507
:103BB000A9F708958091E10208959091E102892B7F
:103BC0008093E1020895982F90958091E1028923D6
:103BD0008093E10208951092E10208959091E0022D
:103BE000892B8093E0020895982F90958091E002B0
:103BF00089238093E00208951092E0020895909145
:103C0000DF02892B8093DF020895982F9095809191
:103C1000DF0289238093DF0208951092DF02089566
:103C20008093BE0208951092BE02089520910B0168
:103C300030910C01F9013196205E3F4F80E0919167
:103C400091118F5FE217F307D1F70895E0910B010F
:103C5000F0910C018091E1028083E0910B01F091E1
:103C60000C0180819091E002892B8083E0910B010F
:103C7000F0910C0180819091DF02892B80839091DB
:103C8000BE02992361F0E0910B01F0910C0180815B
:103C9000892B80830E94161E81111092BE02809192
:103CA0000B0190910C010C94BB126DEE7EEF80E045
:103CB00090E00E94DD2860E082E090E00E94BF2852
:103CC00060E083E090E00E94BF2860E084E090E044
:103CD0000E94BF2860E085E090E00E94BF2860E07D
:103CE00086E090E00E94BF2840E050E0BA0188E002
:103CF00090E00C94D12880E090E00E94B92821E067
:103D00008D3E9E4F09F020E0822F089582E090E0E2
:103D10000C94AB2883E090E00C94AB28682F83E0F0
:103D200090E00C94BF2884E090E00C94AB28682FBE
:103D300084E090E00C94BF2886E090E00C94AB28DF
:103D4000682F86E090E00C94BF28089508950C94A5
:103D5000A61ECF930E94A71E0E948C0C0E94A61E36
:103D6000C0E08C2F0E948D0D672B682B692B31F4DE
:103D7000CF5FC530B1F780E0CF91089581E0FCCFEF
:103D80000E94B0170E94C81F0E94AF120C94AA098B
:103D900082E084BD93E095BD9AEF97BD80936E005D
:103DA00008952FB7F8948091810390918203A09198
:103DB0008303B09184032FBF0895CF92DF92EF92D7
:103DC000FF920F931F932FB7F89440918103509166
:103DD000820360918303709184032FBF6A017B018A
:103DE000EE24FF248C0120E030E0C016D106E2066C
:103DF000F30650F0481B590BCA011F910F91FF9019
:103E0000EF90DF90CF90089541505109F3CF1F926A
:103E10000F920FB60F9211248F939F93AF93BF937E
:103E20008091810390918203A0918303B0918403D8
:103E30000196A11DB11D8093810390938203A093ED
:103E40008303B0938403BF91AF919F918F910F90A3
:103E50000FBE0F901F9018950E942A24F8942FEF00
:103E600087EA91E6215080409040E1F700C00000D1
:103E700087E090EBDC018093990390939A03A093E1
:103E80009B03B0939C039CE088E10FB6F894A8953F
:103E9000809360000FBE90936000FFCF0E947B1E56
:103EA000811102C00E94551E0E94861E8093E2026C
:103EB0000E94931E90E090938603809385030E9456
:103EC0008A1E682F70E080E090E00C94A31BE1E86C
:103ED000F0E08081886080838081816080838FB7FB
:103EE000F89493E09093890090ED909388008FBFB1
:103EF0000895EFE6F0E08081826080830895EFE628
:103F0000F0E080818D7F808308951F920F920FB61D
:103F10000F9211240BB60F922F933F934F935F9301
:103F20006F937F938F939F93AF93BF93EF93FF9381
:103F30008091E3029091E40201969093E4028093D1
:103F4000E302811103C082E00E94AA09E091E40229
:103F5000E695E695F0E0EB5FFB4FE4918091E3029C
:103F60008E1303C080E00E94AA09FF91EF91BF91D8
:103F7000AF919F918F917F916F915F914F913F9101
:103F80002F910F900BBE0F900FBE0F901F901895A2
:103F90000E947B1E811102C00E94551E0E949C1E21
:103FA0008093870380FF03C086950C94AC0580E066
:103FB000FCCF80918703982F9695292F30E02830E9
:103FC000310534F49F5F990F8170892B80938703AB
:103FD000809187038160809387030E94A01E809157
:103FE000870386950C94AC0590918703892F86955D
:103FF00091F08158880F9170892B809387038E7F71
:1040000091E009F490E08091870390FB80F9809320
:1040100087030E94A01E8091870386950C94AC05AF
:1040200080918703982F909590FB80F98093870368
:104030000E94A01E8091870380FF03C086950C9488
:10404000AC0580E0FCCF90918703892F86958F5F28
:104050008F7791708930B8F4880F892B809387030C
:10406000809187038E7F91E009F490E0809187032F
:1040700090FB80F9809387030E94A01E80918703A4
:1040800086950C94AC0590938703EACF90918703B3
:10409000292F26958227880F9170982B909387035C
:1040A0009E7F21E009F420E08091870320FB80F9C6
:1040B000809387030E94A01E8091870386950C94AD
:1040C000AC058091050308950895CF93DF9300D048
:1040D0001F92CDB7DEB720918C03243021F523E069
:1040E00029839B838A8382E08093E9008FEF9091FC
:1040F000E800815095FD06C095ED9A95F1F7000016
:104100008111F5CF8091E80085FF0DC040E050E0BF
:1041100063E070E0CE0101960E94A1228091E80048
:104120008E778093E8000F900F900F90DF91CF91E2
:104130000895CF93DF9300D01F92CDB7DEB72091C3
:104140008C03243029F522E02983805891099B8330
:104150008A832093E9008FEF9091E800815095FDCC
:1041600006C095ED9A95F1F700008111F5CF809189
:10417000E80085FF0DC040E050E063E070E0CE0154
:1041800001960E94A1228091E8008E778093E8003A
:104190000F900F900F90DF91CF910895CF93DF9301
:1041A000EC0180918C03843079F58091170188238C
:1041B00071F18091850387FF2AC083E08093E90035
:1041C0008FEF9091E800815095FD06C095E19A959A
:1041D000F1F700008111F5CF8091E80085FF14C050
:1041E00040E050E060E270E0CE010E94A1228091A8
:1041F000E8008E778093E80080E2FE01A5EEB2E051
:1042000001900D928A95E1F7DF91CF91089581E0B9
:104210008093E9008FEF9091E800815095FD06C0F2
:1042200095ED9A95F1F700008111F5CF8091E800A6
:1042300085FFEACF40E050E068E070E0D5CF8091A4
:104240008B03811109C00E942A240E948C24809132
:10425000E20084608093E200089510928B03089539
:1042600008950C94791F0E94C01E0E947F1F0E9417
:10427000AF120C94AA0942E061EC81E00E94A723EE
:1042800042E061EC82E00E94A72342E261EC83E01D
:104290000C94A72380918E03833009F455C030F429
:1042A000813071F1823009F491C008958A3009F4A7
:1042B0007DC08B3009F463C0893009F044C080911F
:1042C0008D03813209F03FC0809191039091920358
:1042D000009711F00297B9F58091E800877F8093ED
:1042E000E8008091E80082FF2AC08091F10080936D
:1042F00005038091E8008B778093E8000C94DC2321
:1043000080918D03813AF9F48091E800877F809352
:10431000E8008091910390919203892B61F460E20F
:1043200085EE92E070E00E94F0228091E8008B77A9
:104330008093E800089560E080E090E0F3CF809102
:104340008C038111CECF089580918D03813AD9F7E6
:104350008091910390919203892BA9F78091E800B5
:10436000877F8093E8008091E80080FFFCCF8091F8
:1043700017018093F1008091E8008E77BDCF809186
:104380008D03813201F78091910390919203892BE3
:10439000D1F68091E800877F8093E8000E94DC23BB
:1043A00080918F03809317010C94B01780918D0337
:1043B000813249F68091E800877F8093E8000E946F
:1043C000DC238091900380930603089580918D03F0
:1043D000813A09F0B8CF8091E800877F8093E800A8
:1043E0008091E80080FFFCCF80910603C2CF84B7A4
:1043F000877F84BF0FB6F894A8958091600088618C
:1044000080936000109260000FBE80E8809361008E
:10441000109261000E94F3120E942A240E948C24B0
:104420008091E20084608093E20078940E941727D4
:104430000E94F5128DE091E00E94AA120E94671F6F
:1044400080918C03853029F00E94FF120E94771220
:10445000F7CF0E94A51E80918A03882389F30E94CA
:10446000A91E882369F30E948B22EACF292F3327C4
:104470002330310579F158F421303105F1F0223043
:10448000310519F180E090E020E030E01AC02132DF
:10449000310599F122323105A9F7633098F770E0C0
:1044A000FB01EE0FFF1FEE50FE4F20813181615165
:1044B0007E4FFB01808190E004C082E190E029EC16
:1044C00034E0FA0131832083089584E590E025E704
:1044D00034E0F7CF99278130910561F028F00297F9
:1044E00089F6E5E4F4E002C0E1E7F4E0849190E0CD
:1044F0009F01E7CFEDE5F4E0F9CF633008F0C2CFDC
:10450000E62FF0E0EE0FFF1FE850FE4F20813181D3
:1045100089E090E0D6CF84E189BD86E189BD09B408
:1045200000FEFDCF8091D8008F7D8093D8008091D0
:10453000E00082608093E0008091E00081FDFCCF8C
:104540000895AF92BF92DF92EF92FF920F931F9365
:10455000CF93DF93EC018B017A010E94FB23D82ECD
:10456000811124C0E114F10439F0F70180819181B7
:10457000081B190BC80FD91FA12CB12C011511054F
:10458000A9F08091E80085FD22C08091E8008E7737
:104590008093E800E114F104A1F0F701808191819A
:1045A000A80EB91EB182A08285E0D82E8D2DDF9194
:1045B000CF911F910F91FF90EF90DF90BF90AF9040
:1045C00008950E94FB238823C9F2D82EEFCF89914A
:1045D0008093F10001501109FFEFAF1ABF0ACECF4F
:1045E000209193033091940326173707A8F06115A3
:1045F000710529F42091E8002E772093E800FC0152
:1046000020E06115710551F4211108C08091E80086
:1046100082FF31C080E00895B901F1CF80918C0311
:104620008823A9F18530A9F18091E80083FD2DC090
:104630008091E80082FDEACF8091E80080FFE1CF21
:104640008091F2009091F3006115710519F08830A6
:10465000910550F021E0089709F020E08091E800F2
:104660008E778093E800CDCF21912093F1006150A7
:1046700071090196E9CF80918C03882341F0853040
:1046800041F08091E80083FFC1CF81E0089582E08E
:10469000089583E0089520919303309194032617A1
:1046A0003707A8F06115710529F42091E8002E77ED
:1046B0002093E800FC0120E06115710551F42111FF
:1046C00008C08091E80082FF32C080E00895B901FF
:1046D000F1CF80918C038823B1F18530B1F18091C5
:1046E000E80083FD2EC08091E80082FDEACF809132
:1046F000E80080FFE1CF8091F2009091F300611516
:10470000710519F08830910550F021E0089709F003
:1047100020E08091E8008E778093E800CDCF24914F
:104720002093F1003196615071090196E8CF809194
:104730008C03882341F0853041F08091E80083FFAD
:10474000C0CF81E0089582E0089583E00895982F16
:10475000973028F08F708093E90081E0089590935E
:10476000E900981751F07091EC002091ED00509104
:10477000F00021FD06C09F5FEBCF242F762F50E085
:10478000F8CF3091EB003E7F3093EB003091ED009D
:104790003D7F3093ED003091EB0031603093EB00C2
:1047A0007093EC002093ED005093F0002091EE0008
:1047B00027FDE1CF80E0089580918D0387FF13C02E
:1047C0008091E80082FF06C08091E8008B7780939B
:1047D000E80004C080918C038111F2CF089580918C
:1047E0008C038823D9F38091E80080FFF8CF809173
:1047F000E8008E77ECCF2091E4003091E50085E66B
:104800009091EC0090FD20C09091E80092FD20C0B6
:1048100090918C03992391F0953091F09091EB0059
:1048200095FD10C04091E4005091E50042175307F8
:1048300039F381509A0121F784E0089582E00895C8
:1048400083E0089581E008959091E80090FFE0CF23
:1048500080E008950E949B240E94A324E0EEF0E0F3
:10486000808181608083E8EDF0E080818F778083B4
:1048700019BCA7EDB0E08C918E7F8C9380818F7EE8
:10488000808310928B0308950F931F93CF93DF9330
:104890000E949B240E94A324C8EDD0E088818F77DA
:1048A000888388818068888388818F7D8883E7ED0D
:1048B000F0E080818068808319BC10928C03109294
:1048C000880310928A031092890300EE10E0F80129
:1048D00080818B7F808388818160888342E060E073
:1048E00080E00E94A723E1EEF0E080818E7F80834C
:1048F000E2EEF0E080818160808380818860808347
:10490000F80180818E7F8083888180618883DF9138
:10491000CF911F910F910895E8EDF0E080818F7E97
:104920008083E7EDF0E080818160808381E0809387
:104930008B030C944424E8EDF0E080818C7F80832D
:104940001092E20008951092DA001092E1000895AA
:104950001F920F920FB60F9211240BB60F922F9346
:104960003F934F935F936F937F938F939F93AF93F7
:10497000BF93EF93FF938091E10082FF0BC0809182
:10498000E20082FF07C08091E1008B7F8093E1000D
:104990000E9416278091DA0080FF19C08091D8000C
:1049A00080FF15C08091DA008E7F8093DA008091BD
:1049B000D90080FF96C084E189BD86E189BD09B434
:1049C00000FEFDCF81E080938C030E941F21809127
:1049D000E10080FF19C08091E20080FF15C0809146
:1049E000E2008E7F8093E2008091E20080618093FC
:1049F000E2008091D80080628093D80019BC85E0E5
:104A000080938C030E9431218091E10084FF29C0B2
:104A10008091E20084FF25C084E189BD86E189BDE3
:104A200009B400FEFDCF8091D8008F7D8093D8001F
:104A30008091E1008F7E8093E1008091E2008F7E83
:104A40008093E2008091E20081608093E200809197
:104A50008803882309F44BC084E080938C030E9470
:104A600033218091E10083FF29C08091E20083FF20
:104A700025C08091E100877F8093E10082E08093F0
:104A80008C03109288038091E1008E7F8093E10077
:104A90008091E2008E7F8093E2008091E20080614D
:104AA0008093E20042E060E080E00E94A7238091D2
:104AB000F00088608093F0000E943021FF91EF9118
:104AC000BF91AF919F918F917F916F915F914F9126
:104AD0003F912F910F900BBE0F900FBE0F901F9024
:104AE000189519BC10928C030E942D2170CF8091D3
:104AF000E30087FD02C081E0B0CF83E0AECF1F921C
:104B00000F920FB60F9211240BB60F922F933F9373
:104B10004F935F936F937F938F939F93AF93BF93C5
:104B2000CF93EF93FF93C091E900CF708091EC0099
:104B30001092E9008091F000877F8093F0007894D4
:104B40000E94BF251092E9008091F0008860809358
:104B5000F000C093E900FF91EF91CF91BF91AF9129
:104B60009F918F917F916F915F914F913F912F9185
:104B70000F900BBE0F900FBE0F901F9018951F93B4
:104B8000CF93DF93CDB7DEB7AA970FB6F894DEBF09
:104B90000FBECDBFEDE8F3E08091F100819323E0FB
:104BA000E539F207C9F70E944A218091E80083FFA6
:104BB00044C080918D0390918E03492F50E04A307C
:104BC000510508F03AC0FA01E851FA4D0C945B2700
:104BD000F22516261D2616261D26712694261D262C
:104BE000E926F626803879F0823839F580919103EC
:104BF0008F708093E9008091EB0085FB882780F916
:104C00001092E90006C08091890390918A03911166
:104C100082609091E800977F9093E8008093F10084
:104C20001092F1008091E8008E772DC0282F2D7F03
:104C300021F48823D1F0823059F18091E80083FF7C
:104C40000AC08091E800877F8093E8008091EB00A4
:104C500080628093EB00AA960FB6F894DEBF0FBE79
:104C6000CDBFDF91CF911F91089580918F03813047
:104C700021F7933009F080E080938A031092E900D5
:104C80008091E800877F8093E8000E94DC23D5CFE5
:104C900080918F038111F2CF809191038F7069F21F
:104CA0008093E9002091EB0020FFE8CF933031F4AE
:104CB0008091EB0080628093EB00E0CF9091EB005D
:104CC00090619093EB0021E030E001C0220F8A95C3
:104CD000EAF72093EA001092EA008091EB008860E6
:104CE000EACF8111AACF10918F031F778091E30043
:104CF0008078812B8093E3008091E800877F809308
:104D0000E8000E94DC238091E80080FFFCCF8091C6
:104D1000E30080688093E300111104C082E0809377
:104D20008C038BCF83E0FBCF8058823008F085CF97
:104D300080918F03909190038C3D23E09207A1F521
:104D400083E08A838AE289834FB7F894DE01139661
:104D500020E03EE051E2E32FF0E050935700E49171
:104D600020FF03C0E295EF703F5FEF708E2F90E061
:104D7000EA30C0F0C7968D939D932F5F243159F789
:104D80004FBF8091E800877F8093E8006AE270E07F
:104D9000CE0101960E94F0228091E8008B778093EB
:104DA000E8004BCFC096E7CFAE014F5F5F4F6091F9
:104DB00091030E943622BC01892B09F43ECF9091C9
:104DC000E800977F9093E80089819A810E944B23A5
:104DD000E3CF803809F031CF8091E800877F80935E
:104DE000E800809188038093F1001CCF811125CFCA
:104DF00090918F03923008F020CF8091E800877F58
:104E00008093E800909388030E94DC2380918803BC
:104E1000882311F084E005C08091E30087FDFACF7C
:104E200081E080938C030E943B2107CF0895CF93AC
:104E300080918C03882399F0C091E900CF70809114
:104E4000EC0080FD0EC080E0C82B1092E90080913C
:104E5000E80083FD0E94BF25CF70C093E900CF9189
:104E6000089580E8F1CFAA1BBB1B51E107C0AA1F20
:104E7000BB1FA617B70710F0A61BB70B881F991FFB
:104E80005A95A9F780959095BC01CD01089597FB9F
:104E9000072E16F4009407D077FD09D00E9433271F
:104EA00007FC05D03EF4909581959F4F089570952D
:104EB00061957F4F0895EE0FFF1F0024001C0BBE6D
:104EC0000790F691E02D09940F931F93CF93DF93F2
:104ED000869F8001879F100D969F100D1124C80199
:104EE0000E948027EC01009729F0A80160E070E0A3
:104EF0000E94A428CE01DF91CF911F910F910895B8
:104F00000F931F93CF93DF938230910510F482E0CB
:104F100090E0E0919703F091980320E030E0A0E06A
:104F2000B0E0309799F42115310509F447C0281BEA
:104F3000390B24303105C0F58A819B8161157105DB
:104F400071F1FB0193838283FE0111C04081518185
:104F50000281138148175907F8F04817590799F447
:104F6000109761F012960C93129713961C93329639
:104F7000CF01DF91CF911F910F9108950093970377
:104F800010939803F4CF2115310519F042175307F8
:104F900018F49A01BD01EF01DF01F801C2CF90932F
:104FA000980380939703D0CFFE01E20FF31F819304
:104FB00091932250310939832883DACF20919503C8
:104FC00030919603232B41F420910201309103018B
:104FD00030939603209395032091000130910101B5
:104FE0002115310541F42DB73EB740910401509190
:104FF0000501241B350BE0919503F0919603E21710
:10500000F307A0F42E1B3F0B2817390778F0AC01EB
:105010004E5F5F4F2417350748F04E0F5F1F5093C8
:1050200096034093950381939193A2CFE0E0F0E043
:105030009FCFCF93DF930097D1F0FC01329713827B
:105040001282A0919703B0919803109799F4208150
:105050003181820F931F2091950330919603281779
:10506000390709F066C0F0939603E0939503DF914A
:10507000CF910895ED0120E030E0CE17DF0708F072
:105080003FC04A815B819E0141155105B9F5E90197
:10509000FB83EA8349915991C40FD51FEC17FD0793
:1050A00061F4808191810296840F951FE9019983B3
:1050B0008883828193819B838A83E0E0F0E012966B
:1050C0008D919C9113970097C9F52D913C91119763
:1050D000CD010296820F931F209195033091960384
:1050E0002817390721F6309761F51092980310922E
:1050F0009703B0939603A0939503B9CFEA01BDCF70
:10510000D383C28340815181840F951FC817D9076B
:1051100061F44E5F5F4F88819981480F591F518319
:1051200040838A819B81938382832115310509F015
:10513000AECFF0939803E093970399CFFD01DC0184
:10514000BECF13821282D5CFDC0101C06D934150D6
:105150005040E0F70895F999FECF92BD81BDF89ACD
:10516000992780B50895A6E1B0E044E050E00C94A2
:10517000E528A8E1B0E042E050E00C94E528262FB5
:10518000F999FECF92BD81BDF89A019700B402163D
:1051900039F01FBA20BD0FB6F894FA9AF99A0FBEEB
:1051A00008950396272F0E94C0280E94BF28252F0C
:1051B0000E94C028242F0C94C0280196272F0E94FB
:1051C000C0280C94BF28DC01CB01FC01F999FECF6B
:1051D00006C0F2BDE1BDF89A319600B40D9241507F
:0A51E0005040B8F70895F894FFCF8F
:1051EA0000009D032000FFFFFFFFFFBF026120CEEA
:1051FA0020642099206520010C0B0A0910201F1E2B
:10520A001C191816151413121101020304050607B6
:10521A00080E0D0000000000000101020302040252
:10522A00010202030403010302030304010402044A
:10523A000305010502050306010602060307010725
:10524A00020703080108020803010901080107020D
:10525A0009020802070309030803070409040804EA
:10526A0007050905080507060906080607070907C5
:10527A00080606080907070706081028374680C8DF
:10528A00FF00000000F8FFFFFF0000FF0F0000080A
:10529A00000000F8FFFFFF00000000FF0F100000F1
:1052AA0000F0FFFFFFFF0F0000FF0FFFFFFFFFFFF0
:1052BA00FFFFFFFF0FFF0FFF0F020304050607C6DC
:1052CA00C7F0F1F2F3606162639792939495964006
:0E52DA0036394A051405DB048704A004B90424
:00000001FF
